{
  "contractName": "RandomNumberConsumerV2",
  "abi": [
    {
      "inputs": [
        {
          "internalType": "uint64",
          "name": "subscriptionId",
          "type": "uint64"
        },
        {
          "internalType": "address",
          "name": "vrfCoordinator",
          "type": "address"
        },
        {
          "internalType": "bytes32",
          "name": "keyHash",
          "type": "bytes32"
        }
      ],
      "stateMutability": "nonpayable",
      "type": "constructor"
    },
    {
      "inputs": [
        {
          "internalType": "address",
          "name": "have",
          "type": "address"
        },
        {
          "internalType": "address",
          "name": "want",
          "type": "address"
        }
      ],
      "name": "OnlyCoordinatorCanFulfill",
      "type": "error"
    },
    {
      "anonymous": false,
      "inputs": [
        {
          "indexed": false,
          "internalType": "uint256[]",
          "name": "randomWords",
          "type": "uint256[]"
        }
      ],
      "name": "ReturnedRandomness",
      "type": "event"
    },
    {
      "inputs": [
        {
          "internalType": "uint256",
          "name": "requestId",
          "type": "uint256"
        },
        {
          "internalType": "uint256[]",
          "name": "randomWords",
          "type": "uint256[]"
        }
      ],
      "name": "rawFulfillRandomWords",
      "outputs": [],
      "stateMutability": "nonpayable",
      "type": "function"
    },
    {
      "inputs": [
        {
          "internalType": "uint256",
          "name": "",
          "type": "uint256"
        }
      ],
      "name": "s_randomWords",
      "outputs": [
        {
          "internalType": "uint256",
          "name": "",
          "type": "uint256"
        }
      ],
      "stateMutability": "view",
      "type": "function"
    },
    {
      "inputs": [],
      "name": "s_requestId",
      "outputs": [
        {
          "internalType": "uint256",
          "name": "",
          "type": "uint256"
        }
      ],
      "stateMutability": "view",
      "type": "function"
    },
    {
      "inputs": [],
      "name": "requestRandomWords",
      "outputs": [],
      "stateMutability": "nonpayable",
      "type": "function"
    },
    {
      "inputs": [],
      "name": "getSubscriptionId",
      "outputs": [
        {
          "internalType": "uint64",
          "name": "",
          "type": "uint64"
        }
      ],
      "stateMutability": "view",
      "type": "function"
    }
  ],
  "bytecode": "0x6101006040523480156200001257600080fd5b5060405162000b7038038062000b7083398181016040528101906200003891906200015e565b818073ffffffffffffffffffffffffffffffffffffffff1660808173ffffffffffffffffffffffffffffffffffffffff1660601b81525050508173ffffffffffffffffffffffffffffffffffffffff1660a08173ffffffffffffffffffffffffffffffffffffffff1660601b815250508060e0818152505033600260006101000a81548173ffffffffffffffffffffffffffffffffffffffff021916908373ffffffffffffffffffffffffffffffffffffffff1602179055508267ffffffffffffffff1660c08167ffffffffffffffff1660c01b815250505050506200025f565b6000815190506200012a8162000211565b92915050565b60008151905062000141816200022b565b92915050565b600081519050620001588162000245565b92915050565b6000806000606084860312156200017a57620001796200020c565b5b60006200018a8682870162000147565b93505060206200019d8682870162000119565b9250506040620001b08682870162000130565b9150509250925092565b6000620001c782620001d8565b9050919050565b6000819050919050565b600073ffffffffffffffffffffffffffffffffffffffff82169050919050565b600067ffffffffffffffff82169050919050565b600080fd5b6200021c81620001ba565b81146200022857600080fd5b50565b6200023681620001ce565b81146200024257600080fd5b50565b6200025081620001f8565b81146200025c57600080fd5b50565b60805160601c60a05160601c60c05160c01c60e0516108c1620002af60003960006102140152600081816101b20152610235015260006101d801526000818160f0015261014401526108c16000f3fe608060405234801561001057600080fd5b50600436106100575760003560e01c80631fe543e31461005c578063de3d9fb714610078578063e0c8628914610096578063e89e106a146100a0578063f6eaffc8146100be575b600080fd5b610076600480360381019061007191906104de565b6100ee565b005b6100806101ae565b60405161008d91906106d2565b60405180910390f35b61009e6101d6565b005b6100a86102d6565b6040516100b591906106b7565b60405180910390f35b6100d860048036038101906100d39190610484565b6102dc565b6040516100e591906106b7565b60405180910390f35b7f000000000000000000000000000000000000000000000000000000000000000073ffffffffffffffffffffffffffffffffffffffff163373ffffffffffffffffffffffffffffffffffffffff16146101a057337f00000000000000000000000000000000000000000000000000000000000000006040517f1cf993f4000000000000000000000000000000000000000000000000000000008152600401610197929190610619565b60405180910390fd5b6101aa8282610300565b5050565b60007f0000000000000000000000000000000000000000000000000000000000000000905090565b7f000000000000000000000000000000000000000000000000000000000000000073ffffffffffffffffffffffffffffffffffffffff16635d3b1d307f00000000000000000000000000000000000000000000000000000000000000007f00000000000000000000000000000000000000000000000000000000000000006003620186a060026040518663ffffffff1660e01b815260040161027c959493929190610664565b602060405180830381600087803b15801561029657600080fd5b505af11580156102aa573d6000803e3d6000fd5b505050506040513d601f19601f820116820180604052508101906102ce91906104b1565b600181905550565b60015481565b600081815481106102ec57600080fd5b906000526020600020016000915090505481565b8060009080519060200190610316929190610352565b507fefb16d61046900da527008568620fb9f8420e2f5ed4de3bfbded5035c9362b0e816040516103469190610642565b60405180910390a15050565b82805482825590600052602060002090810192821561038e579160200282015b8281111561038d578251825591602001919060010190610372565b5b50905061039b919061039f565b5090565b5b808211156103b85760008160009055506001016103a0565b5090565b60006103cf6103ca84610712565b6106ed565b905080838252602082019050828560208602820111156103f2576103f1610854565b5b60005b858110156104225781610408888261045a565b8452602084019350602083019250506001810190506103f5565b5050509392505050565b600082601f8301126104415761044061084f565b5b81356104518482602086016103bc565b91505092915050565b60008135905061046981610874565b92915050565b60008151905061047e81610874565b92915050565b60006020828403121561049a5761049961085e565b5b60006104a88482850161045a565b91505092915050565b6000602082840312156104c7576104c661085e565b5b60006104d58482850161046f565b91505092915050565b600080604083850312156104f5576104f461085e565b5b60006105038582860161045a565b925050602083013567ffffffffffffffff81111561052457610523610859565b5b6105308582860161042c565b9150509250929050565b600061054683836105dd565b60208301905092915050565b61055b81610777565b82525050565b600061056c8261074e565b6105768185610766565b93506105818361073e565b8060005b838110156105b2578151610599888261053a565b97506105a483610759565b925050600181019050610585565b5085935050505092915050565b6105c881610789565b82525050565b6105d781610793565b82525050565b6105e6816107c1565b82525050565b6105f5816107c1565b82525050565b610604816107cb565b82525050565b610613816107db565b82525050565b600060408201905061062e6000830185610552565b61063b6020830184610552565b9392505050565b6000602082019050818103600083015261065c8184610561565b905092915050565b600060a08201905061067960008301886105bf565b610686602083018761060a565b61069360408301866105ce565b6106a060608301856105fb565b6106ad60808301846105fb565b9695505050505050565b60006020820190506106cc60008301846105ec565b92915050565b60006020820190506106e7600083018461060a565b92915050565b60006106f7610708565b905061070382826107ef565b919050565b6000604051905090565b600067ffffffffffffffff82111561072d5761072c610820565b5b602082029050602081019050919050565b6000819050602082019050919050565b600081519050919050565b6000602082019050919050565b600082825260208201905092915050565b6000610782826107a1565b9050919050565b6000819050919050565b600061ffff82169050919050565b600073ffffffffffffffffffffffffffffffffffffffff82169050919050565b6000819050919050565b600063ffffffff82169050919050565b600067ffffffffffffffff82169050919050565b6107f882610863565b810181811067ffffffffffffffff8211171561081757610816610820565b5b80604052505050565b7f4e487b7100000000000000000000000000000000000000000000000000000000600052604160045260246000fd5b600080fd5b600080fd5b600080fd5b600080fd5b6000601f19601f8301169050919050565b61087d816107c1565b811461088857600080fd5b5056fea26469706673582212207389b756cae9163428e1eab90b22dce1e0cac822f9ce8b0d71ccc0fd46d71ea864736f6c63430008070033",
  "immutableReferences": {
    "10": [
      {
        "length": 32,
        "start": 240
      },
      {
        "length": 32,
        "start": 324
      }
    ],
    "1817": [
      {
        "length": 32,
        "start": 472
      }
    ],
    "1819": [
      {
        "length": 32,
        "start": 434
      },
      {
        "length": 32,
        "start": 565
      }
    ],
    "1821": [
      {
        "length": 32,
        "start": 532
      }
    ]
  },
  "source": "// SPDX-License-Identifier: MIT\n// An example of a consumer contract that relies on a subscription for funding.\npragma solidity ^0.8.7;\n\nimport \"@chainlink/contracts/src/v0.8/interfaces/VRFCoordinatorV2Interface.sol\";\nimport \"@chainlink/contracts/src/v0.8/VRFConsumerBaseV2.sol\";\n\n/**\n * @title The RandomNumberConsumerV2 contract\n * @notice A contract that gets random values from Chainlink VRF V2\n */\ncontract RandomNumberConsumerV2 is VRFConsumerBaseV2 {\n    VRFCoordinatorV2Interface immutable COORDINATOR;\n\n    // Your subscription ID.\n    uint64 immutable s_subscriptionId;\n\n    // The gas lane to use, which specifies the maximum gas price to bump to.\n    // For a list of available gas lanes on each network,\n    // see https://docs.chain.link/docs/vrf-contracts/#configurations\n    bytes32 immutable s_keyHash;\n\n    // Depends on the number of requested values that you want sent to the\n    // fulfillRandomWords() function. Storing each word costs about 20,000 gas,\n    // so 100,000 is a safe default for this example contract. Test and adjust\n    // this limit based on the network that you select, the size of the request,\n    // and the processing of the callback request in the fulfillRandomWords()\n    // function.\n    uint32 constant CALLBACK_GAS_LIMIT = 100000;\n\n    // The default is 3, but you can set this higher.\n    uint16 constant REQUEST_CONFIRMATIONS = 3;\n\n    // For this example, retrieve 2 random values in one request.\n    // Cannot exceed VRFCoordinatorV2.MAX_NUM_WORDS.\n    uint32 constant NUM_WORDS = 2;\n\n    uint256[] public s_randomWords;\n    uint256 public s_requestId;\n    address s_owner;\n\n    event ReturnedRandomness(uint256[] randomWords);\n\n    /**\n     * @notice Constructor inherits VRFConsumerBaseV2\n     *\n     * @param subscriptionId - the subscription ID that this contract uses for funding requests\n     * @param vrfCoordinator - coordinator, check https://docs.chain.link/docs/vrf-contracts/#configurations\n     * @param keyHash - the gas lane to use, which specifies the maximum gas price to bump to\n     */\n    constructor(\n        uint64 subscriptionId,\n        address vrfCoordinator,\n        bytes32 keyHash\n    ) VRFConsumerBaseV2(vrfCoordinator) {\n        COORDINATOR = VRFCoordinatorV2Interface(vrfCoordinator);\n        s_keyHash = keyHash;\n        s_owner = msg.sender;\n        s_subscriptionId = subscriptionId;\n    }\n\n    /**\n     * @notice Requests randomness\n     * Assumes the subscription is funded sufficiently; \"Words\" refers to unit of data in Computer Science\n     */\n    function requestRandomWords() external {\n        // Will revert if subscription is not set and funded.\n        s_requestId = COORDINATOR.requestRandomWords(\n            s_keyHash,\n            s_subscriptionId,\n            REQUEST_CONFIRMATIONS,\n            CALLBACK_GAS_LIMIT,\n            NUM_WORDS\n        );\n    }\n\n    /**\n     * @notice Callback function used by VRF Coordinator\n     *\n     * @param randomWords - array of random results from VRF Coordinator\n     */\n    function fulfillRandomWords(\n        uint256, /*requestId*/\n        uint256[] memory randomWords\n    ) internal override {\n        s_randomWords = randomWords;\n        emit ReturnedRandomness(randomWords);\n    }\n\n    function getSubscriptionId() public view returns (uint64) {\n        return s_subscriptionId;\n    }\n}\n",
  "sourcePath": "D:\\Github\\Chainlink Hackthons\\1Dynamic NFT\\contracts\\RandomNumberConsumerV2.sol",
  "compiler": {
    "name": "solc",
    "version": "0.8.7+commit.e28d00a7.Emscripten.clang"
  },
  "schemaVersion": "3.4.10",
  "updatedAt": "2022-10-14T17:19:08.013Z",
  "devdoc": {
    "kind": "dev",
    "methods": {
      "constructor": {
        "params": {
          "keyHash": "- the gas lane to use, which specifies the maximum gas price to bump to",
          "subscriptionId": "- the subscription ID that this contract uses for funding requests",
          "vrfCoordinator": "- coordinator, check https://docs.chain.link/docs/vrf-contracts/#configurations"
        }
      }
    },
    "title": "The RandomNumberConsumerV2 contract",
    "version": 1
  },
  "userdoc": {
    "kind": "user",
    "methods": {
      "constructor": {
        "notice": "Constructor inherits VRFConsumerBaseV2"
      },
      "requestRandomWords()": {
        "notice": "Requests randomness Assumes the subscription is funded sufficiently; \"Words\" refers to unit of data in Computer Science"
      }
    },
    "notice": "A contract that gets random values from Chainlink VRF V2",
    "version": 1
  }
}